{"number":"0x20654e8","hash":"0x72ef0e9a9e81b98eaa0798852d1e874553a7baf5a1a7d8d7b4150228fbf281f2","transactions":[{"blockHash":"0x72ef0e9a9e81b98eaa0798852d1e874553a7baf5a1a7d8d7b4150228fbf281f2","blockNumber":"0x20654e8","hash":"0xa1d47dadffb8dc2f0a7be0107c2c8945b6215d204fa0492273fd8e11c299ca36","from":"0x39d4d2dd3351576d5f2da9dfdc13b499cac871d8","gas":"0x55d1a","gasPrice":"0xf4240","input":"0xe2bbb15800000000000000000000000000000000000000000000000000001318c848175c0000000000000000000000000000000000000000000000000000000000000000","nonce":"0x14","r":"0x31f44a40bcadc4cc11ea1be8d9554dc90622085801e38a15819465e78203e7c8","s":"0x6e2c30012e9eff6af632c1115229194a11ee14bcad4c1740d66734ddd84916d6","to":"0x3b9ce26a8527b1c2f92e8d60ed920c7dae77bbdd","transactionIndex":"0x0","v":"0x37","value":"0x0","l1BlockNumber":"0xf27358","l1Timestamp":"0x6363aa1e","index":"0x20654e7","queueOrigin":"sequencer","rawTransaction":"0xf8a814830f424083055d1a943b9ce26a8527b1c2f92e8d60ed920c7dae77bbdd80b844e2bbb15800000000000000000000000000000000000000000000000000001318c848175c000000000000000000000000000000000000000000000000000000000000000037a031f44a40bcadc4cc11ea1be8d9554dc90622085801e38a15819465e78203e7c8a06e2c30012e9eff6af632c1115229194a11ee14bcad4c1740d66734ddd84916d6"}],"difficulty":"0x2","extraData":"0xd98301090a846765746889676f312e31352e3133856c696e7578000000000000f7b54e496dc099462fa5e85dc659f7196bef8107c0f1bd8addc5915f56f7758e0b12cf1a540a0d6fd7457ed036c9e5b978bceafdab29a169b65983b62696341001","gasLimit":"0xe4e1c0","gasUsed":"0x536dc","logsBloom":"0x00200000000000000000000000000000000000000400100000000000000000000000000000000000000000000000000008000000000000000000000004000020000800420000000000000008000000000000000000000000000000000000000000000000000000000000000000100000000000000004008000000010000000000000000000000000000000000000000000200100000000000000000000000000100000000000000002000000000000002000000000000000000000000000000000000002000000000000000000000000000000000008000000000000000000008000000000000000000000002000000000000000400000000000000000000000","miner":"0x0000000000000000000000000000000000000000","mixHash":"0x0000000000000000000000000000000000000000000000000000000000000000","nonce":"0x0000000000000000","parentHash":"0x7ff0335550ee98be8808242e400eb8c2b0fd479fb12cbdef69ff02e8b751ee61","receiptsRoot":"0x8fb2c388222adb2863cfac86dc1c716c2e33d04feee074c0a462586350111143","sha3Uncles":"0x1dcc4de8dec75d7aab85b567b6ccd41ad312451b948a7413f0a142fd40d49347","size":"0x310","stateRoot":"0x77ac81496dde8f432160b5113a81f5baa4e08cef0f9309fb923d111b5ab35265","timestamp":"0x6363aa1e","totalDifficulty":"0x40ca9d1","transactionsRoot":"0x0c1dd73bb0eb30f664263e04353b1ca4f23eada18b9e082730172320c71b8e9d","uncles":[]}
